:02000004F90001
:1000000097110000938181661381C1891385C18096
:100010009385C1801386C18163FCC50083220500DE
:1000200023A055001305450093854500E3E8C5FE70
:100030001385C181938501826378B5002320050073
:1000400013054500E36CB5FEEF00905AEF00503BFE
:080050006F0000006780000052
:100C00006F00800237070100B74601F81307F7FFAE
:100C100083A74600B3F7E700E38C07FE13650510D2
:100C200023A0A60067800000130101FF2326110006
:100C3000B74701F81307200023A4070023A0E70209
:100C400023A2E70223A4E70223A6E7023707010055
:100C5000B74601F81307F7FF83A74600B3F7E7008D
:100C6000E38C07FEB7170000938707803707010062
:100C700023A0F6001307F7FFB74601F883A7460045
:100C8000B3F7E700E38C07FEB717000093870788E8
:100C900023A0F6001305B00AEFF0DFF613050000FD
:100CA000EFF05FF613050000EFF0DFF5130500002D
:100CB000EFF05FF513050000EFF0DFF437070100F8
:100CC000B74601F81307F7FF83A74600B3F7E7001D
:100CD000E38C07FEB71700009387078023A0F60078
:100CE000B78700F803A70700B727000093870771AD
:100CF0003307F700B78600F883A70600B307F7406D
:100D0000E3DC07FE37070100B74601F81307F7FFDA
:100D100083A74600B3F7E700E38C07FEB717000090
:100D20009387078823A0F6001305B000EFF09FED2E
:100D300013058003EFF01FED13050000EFF09FECAB
:100D400013050000EFF01FEC13050000EFF09FEB20
:100D500037060100371700F9B70600F9B74701F861
:100D60001306F6FF13080020130707C083A54700EA
:100D7000B3F5C500E38C05FE23A0070183A547005A
:100D800093D50501E38C05FE03A5070093851600A6
:100D90002380A600639AE50437070100B74601F8EF
:100DA0001307F7FF83A74600B3F7E700E38C07FEBE
:100DB000B71700009387078023A0F6000F100000EC
:100DC00013000000130000001300000013000000D7
:100DD00013000000130000008320C100370300F956
:100DE0001301010167000300938605006FF01FF8EF
:100DF000130101FF23248100232021011384C180DA
:100E00001389C180330989402326110023229100D0
:100E100013592940630E090093040000832704003E
:100E20009384140013044400E7800700E31899FE3C
:100E30001384C1801389C180330989401359294023
:100E4000630E0900930400008327040093841400B8
:100E500013044400E7800700E31899FE8320C100D3
:100E600003248100832441000329010013010101AF
:040E70006780000097
:0E0E7400000000000000000000000000000070
:04000005F9000000FE
:00000001FF
